:020000040800F2
:1000000078050020A1010008EF2500088D220008D6
:10001000ED25000831080008192B00080000000039
:100020000000000000000000000000009928000807
:100030007D09000800000000F1250008652900087E
:10004000BB010008BB010008BB010008BB010008A0
:10005000BB010008BB0100089D100008BB0100089F
:10006000BB010008BB010008BB010008BB01000880
:10007000BB010008BB010008BB010008BB01000870
:10008000BB010008BB010008BB010008BB01000860
:10009000BB010008BB010008BB010008BB01000850
:1000A000BB010008BB010008BB010008BB01000840
:1000B000BB010008BB010008BB010008BB01000830
:1000C000BB010008BB010008BB010008BB01000820
:1000D000BB010008BB010008BB010008BB01000810
:1000E000BB010008BB010008BB010008BB01000800
:1000F000BB010008BB010008BB010008BB010008F0
:10010000BB010008BB010008BB010008BB010008DF
:10011000BB010008BB010008BB010008BB010008CF
:10012000BB010008BB010008BB010008BB010008BF
:10013000BB010008BB010008BB010008BB010008AF
:10014000BB010008BB010008BB010008BB0100089F
:10015000BB010008BB010008BB010008BB0100088F
:10016000BB010008BB010008BB010008BB0100087F
:10017000BB010008BB010008BB0100080000000033
:10018000BB010008BB010008DFF810D000F03EFB07
:10019000004800477D380008AFF300807805002054
:1001A0000648804706480047FEE7FEE7FEE7FEE711
:1001B000FEE7FEE7FEE7FEE7FEE7FEE7FD290008B3
:1001C000890100082DE9F05F0546002092469B4614
:1001D00088460646814640241BE02846414647465D
:1001E000224600F02DFA53465A46C01A914110D3C8
:1001F00011461846224600F014FA2D1A67EB010842
:100200004F4622460120002100F00BFA17EB0009AF
:100210004E41201EA4F10104DFDC484631462A4647
:100220004346BDE8F09F40EA01039B0703D009E085
:1002300008C9121F08C0042AFAD203E011F8013BD2
:1002400000F8013B521EF9D27047D2B201E000F82B
:10025000012B491EFBD270470022F6E710B513466A
:100260000A4604461946FFF7F0FF204610BD2DE967
:10027000FE4F804681EA0300C00F0C46009021F03B
:10028000004123F00045B8EB0200A94105D24046E9
:10029000214690461C460B46024623F00040104380
:1002A00047D0270DC7F30A00C3F30A510290401A42
:1002B000019040286BDAC3F3130040F4801B0098D0
:1002C000924620B10023D2EB030A63EB0B0B01989B
:1002D0005946C0F14002504600F0A3F906460D46CB
:1002E00050465946019A00F0BBF910EB08006141F5
:1002F000002487EA115284EAE7731A4340D0009A37
:1003000062B3019A012A4FEA075215DC001B61EB28
:1003100002014FF0004202EA0752CDE90042001C00
:1003200041F5801132462B4600F0F2F903B0BDE8EA
:10033000F08F40462146F9E7001B61EB0201001CEB
:1003400041F5801300185B412018A2F5001747EB18
:10035000030140EAD570B6196D4111E06D084FEA0E
:10036000360645EAC0754FEA0752001B61EB0201F1
:10037000001C41F5801149084FEA30000019514135
:1003800032462B4603B0BDE8F04F00F0B2B90098FA
:10039000012240000023D0EB020263EBE0730098DF
:1003A00021464FEAE074B8EB000061EB0401E9E795
:1003B00083F000435BE781F0004158E72DE9FE4FF1
:1003C00081EA030404F0004421F0004100944FF05E
:1003D000000B23F0004350EA01045ED052EA03040C
:1003E0005BD0C3F30A54C1F30A552C44A4F2F3348E
:1003F0000194A0FB0254C1F3130141F48011C3F333
:10040000130343F4801301FB024400FB034E840AF0
:10041000970A44EA815447EA8357A4FB0768029588
:100420008D0A05FB07854FEA932C04FB0C54270526
:10043000029D4FEA065847EA1637B5EB08056EEB02
:10044000070C870E920E47EA811742EA8312A7FB38
:100450000201B6EB0B0164EB00042B0D43EA0C33F5
:100460005E1844EB1C50DA465146E7FB0201C5F327
:1004700013044FEA0B3343EA14534FEA0432019C4E
:1004800043EA0603A4F10C040294009CCDE900B4F5
:1004900000F03EF903B0BDE8F08F00200146F9E717
:1004A0002DE9F04D81EA030404F0004B21F00045F2
:1004B00014464FF0000A23F0004150EA050220D014
:1004C00054EA01021DD0C5F30A570246C5F31303CF
:1004D000C1F31300C1F30A5640F4801543F48013AE
:1004E000A7EB0608101BD64608F2FD3873EB050093
:1004F00002D308F1010801E092185B41B8F1000F46
:1005000003DA00200146BDE8F08D00204FF4801191
:10051000064684460EE0171B73EB050705D3121B36
:1005200063EB050306434CEA010C49084FEA30002F
:1005300092185B4150EA0107EDD152EA030012D054
:1005400082EA040083EA0501084305D0101BAB4191
:1005500006D20122002306E000224FF0004302E011
:100560006FF0010253101AEB06004CEB085110EB30
:100570000A0041EB0B01BDE8F04D00F0BAB80EB532
:1005800040F2334102910021CDE900110A460B46A9
:1005900000F0BEF803B000BD00F0004230F00040B3
:1005A0000AD0C10D01F56071C0F3160042EA015195
:1005B000C20840071143704700200146704701F010
:1005C000004330B421F0004150EA010206D00A0D88
:1005D000A2F56072C1F31301002A02DC30BC0020D6
:1005E0007047440F44EAC104C100E01830BC00EB7E
:1005F000C25000F047B830B50B460146002020221B
:10060000012409E021FA02F59D4205D303FA02F51F
:10061000491B04FA02F52844151EA2F10102F1DC7F
:1006200030BD202A04DB203A00FA02F10020704796
:100630009140C2F1200320FA03F319439040704720
:10064000202A04DB203A21FA02F00021704721FA27
:1006500002F3D040C2F1200291400843194670478E
:10066000202A06DBCB17203A41FA02F043EAE07376
:1006700006E041FA02F3D040C2F120029140084363
:10068000194670470029A8BF7047401C490008BFA1
:1006900020F00100704710B4B0FA80FC00FA0CF0B2
:1006A00050EA010404BF10BC704749B1CCF12004EA
:1006B00021FA04F411FA0CF118BF01212143084377
:1006C000A3EB0C01CB1D4FEA00614FEA102042BFA3
:1006D000002010BC704700EBC35010440029A4BF99
:1006E00010BC7047401C490008BF20F0010010BC3E
:1006F000704710B5141E73F1000408DA401C41F174
:10070000000192185B411A4301D120F0010010BD95
:100710002DE9F04D92469B4611B1B1FA81F202E00B
:10072000B0FA80F220329046FFF77BFF04460F4676
:1007300040EA0A0041EA0B0153465A46084313D0E7
:10074000114653EA010019D0C8F140025046FFF7A4
:1007500077FF05460E46504659464246FFF761FF71
:10076000084305D0012004E020463946BDE8F08D5D
:100770000020054346EAE0762C4337430A98630598
:10078000E40AA0EB08000022FD0A44EA47540A30BC
:1007900002D500200146E9E7010510196941DDE9AC
:1007A000084500196941BDE8F04DA2E7C1F30A52BE
:1007B000C1F3130140F2FF3341F480119A4202DA8F
:1007C00000200146704740F233439A42A2F233427E
:1007D00002DC5242FFF734BFFFF723BF30B5041EDF
:1007E00071F1000404DB4FF00044404264EB01016E
:1007F000141E73F1000405DB1C464FF00043524207
:1008000063EB0403994208BF904230BD064C074D8C
:1008100006E0E06840F0010394E8070098471034D0
:10082000AC42F6D3FFF7B4FCB43B0008D43B00085D
:10083000FEE7000010B5F5EEC00A2DED048BB0EE1A
:10084000408A00249FED390AF1EE10FA01D1F0EE52
:10085000400AB5EEC08AF1EE10FA01D1B0EE408A3E
:10086000F5EEC00AF1EE10FA05D2B5EEC08AF1EE4F
:1008700010FA00DD5A24F5EEC00AF1EE10FA05D2A6
:10088000B5EEC08AF1EE10FA00D2B424F5EEC00A3B
:10089000F1EE10FA06DDB5EEC08AF1EE10FA01D2E3
:1008A0004FF4877410EE900AFFF776FE41EC190BB7
:1008B00018EE100AFFF770FE53EC192BFFF7F0FD4E
:1008C0009FED1B1B53EC112BFFF7EAFD41EC100BC6
:1008D00002F05EF99FED181B51EC100B53EC112B3D
:1008E000FFF76CFDFFF76BFE08EE100AB5EEC08A4D
:1008F000F1EE10FA03D29FED120A38EE008A20467C
:10090000FFF73DFE41EC190BB0EEC80A10EE100ADD
:10091000FFF742FE53EC192BFFF7A9FCFFF74FFE40
:10092000BDEC048B00EE100A10BD00006F12833A7C
:100930006E861BF0F921094000000000008066402F
:100940000000B4429FED091A20EE010A9FED091A3A
:1009500020EE200ADFED060A60EE200A80EE810A12
:10096000DFED050A20EE200A704700006666F640BB
:10097000CDCC0C4000803B4600007A44704700001C
:100980002DE9F05FB44CDFF8D4A2B54EB54F2DED94
:10099000028BB4F90A009FEDB48A41F2883B01282A
:1009A0003CDBB2A002F0BAF8F100504600F0C3FD03
:1009B00001F074FF70682061B248D0ED030A90ED39
:1009C000020AB0F90420B0F90210B0F9000000F0FA
:1009D000EBF9E08901287DD1AB4802F09FF87068FF
:1009E00060612169F0EE480A401AA061B0FBF7F09F
:1009F0009FEDA60AFFF7A6FF10EE100AFFF7CCFD49
:100A000041EC100BA2A053EC102B02F087F8BDECC8
:100A1000028B5846BDE8F05F00F06CBCA2A002F06B
:100A20007DF800F03FFB974DDFF894822035B5F953
:100A30000400B5F90010884256DAB5F90220904258
:100A400052DADFF88092EA684A454DDBAA684245EF
:100A50004ADC9DA002F062F8706820614FF480517A
:100A6000504600F068FD00BF00F01CFBB4F9020026
:100A7000C10715D0012813DDB5F90020B5F9040030
:100A8000B5F90230E96890420ADA984208DA494535
:100A900006DBA088401C01B2A1809BA002F03EF8BA
:100AA000A0880428E0D19D4802F038F870686061A1
:100AB0002169F0EE480A401AA061B0FBF7F0B1EEF0
:100AC000040AFFF73FFF10EE100AFFF765FD41EC47
:100AD000100B00E0BBE053EC102B6DA002F01EF8F1
:100AE000584600F007FCBFE7B5F90220DFF8309266
:100AF000914256DA814254DA8A4BD5F80CC09C45B3
:100B00004FDBD5F808C09C454BDB874802F006F860
:100B1000706820614FF40051504600F00CFD00BF9A
:100B200000F0C0FAB4F90200C10718D0012816DDA0
:100B3000B5F90000B5F90220D5E902C1B5F90430D4
:100B400090420CDA98420ADA494508DBCC4506DBCC
:100B5000E088401C01B2E18074A001F0DFFFE08872
:100B60000428DDD1784801F0D9FF706860612169FF
:100B7000F0EE480A401AA061B0FBF7F0B2EE000AAE
:100B8000FFF7E0FE10EE100AFFF706FD41EC100B38
:100B90003FA053EC102B01F0C1FF584600F0AAFB18
:100BA000BEE7884253DA904251DAE86848454EDBA6
:100BB000A86840454BDB65A001F0B0FF706820617C
:100BC0004FF48041504600F0B6FC00BF00F06AFAD6
:100BD000B4F90200C10718D0012816DDB5F90020CC
:100BE000B5F90400D5E902C1B5F9023090420CDA3A
:100BF00098420ADA494508DBC44506DB2089401CD7
:100C000001B2218161A001F089FF20890428DDD192
:100C1000634801F083FF706860612169401AA06138
:100C2000B0FBF7F09FED5F0AF0EE480AFFF78AFE8F
:100C300010EE100AFFF7B0FC41EC100B14A053ECBF
:100C4000102B01F06BFF584600F054FBBEE7BDECE3
:100C5000028BBDE8F09F000000000020000C024065
:100C6000001000E0007A030A0000C8420D457865D4
:100C70007263697365204D6F64653A20596F6761CF
:100C80000A00000048000020C43A000833335340F3
:100C900043616C6F72696573204275726E74203D9A
:100CA0002025302E35660A000D4E6F726D616C2066
:100CB0004578657263697365204D6F64650A00004D
:100CC00000004842000070412A2A2A2A2A2A2A2A99
:100CD0002A2A2A2A2A2A2A2A5371756174732064BF
:100CE0006574656374656421212121212121212AF4
:100CF0002A2A2A2A2A2A2A2A2A2A2A2A2A2A2A2A54
:100D00002A2A2A2A2A0A0000537175617473206303
:100D10006F756E74203D202564200A001C3B00087E
:100D20000000C8420000A0426C3B00084A756D708C
:100D3000696E67204A61636B7320636F756E742000
:100D40003D202564200A0000203A00082A2A2A2A89
:100D50002A2A2A2A2A2A2A2A2A2A2A2A53697475F6
:100D6000707073206465746563746564212121214A
:100D7000212121212A2A2A2A2A2A2A2A2A2A2A2AF7
:100D80002A2A2A2A2A2A2A2A2A2A0A005369747510
:100D9000707320436F756E74203D202564200A0017
:100DA000743A00083333334010B5354C0028B4F999
:100DB0000C3018DD00290FDA002A03DD002B50D19A
:100DC00030A003E04BDA012B45D139A001F0A6FE9B
:100DD000A089401CA08110BD39DD002A14DA022B45
:100DE00031D13DA0F2E70CDA00293CDD002A3ADDE2
:100DF000032B02D0042B02D011E041A0E6E74CA067
:100E0000E4E707DD002922DD002A1ADD052B14D1D5
:100E100050A0DBE70CDA002925DD002A23DD062BB4
:100E200002D0072B02D01EE055A0CFE75EA0CDE791
:100E300019DD00290BDD002A03DD082B13D164A086
:100E4000C4E7002A0FDA092B0DD16DA0BEE70029F7
:100E500009DA002A03DA0A2B05D173A0B6E7002AC3
:100E600001DD0B2B09D00C2BB5D17AA001F056FE79
:100E7000E089401CE0810020ACE77DA0A6E70000EF
:100E8000000000200D5375727961204E616D617311
:100E90006B617220506F73652031203A205072616F
:100EA000727468616E61204D756472610A000000A1
:100EB0000D5375727961204E616D61736B617220A3
:100EC000506F73652032203A20486173746F7474D8
:100ED000616E6173616E0A000D5375727961204E07
:100EE000616D61736B617220506F73652033203ABE
:100EF00020506164686173746173616E200A000040
:100F00000D5375727961204E616D61736B61722052
:100F1000506F73652034203A204173687761205305
:100F2000616E6368616C616E6173616E0A000000DE
:100F30000D5375727961204E616D61736B61722022
:100F4000506F73652035203A2044616E646173618F
:100F50006E0A00000D5375727961204E616D6173E8
:100F60006B617220506F73652036203A20417368A0
:100F700074616E67205072616E616D0A000000003E
:100F80000D5375727961204E616D61736B617220D2
:100F9000506F73652037203A204268756A616E672A
:100FA0006173616E0A0000000D5375727961204E05
:100FB000616D61736B617220506F73652038203AE8
:100FC000205061727661746173616E0A00000000E6
:100FD0000D5375727961204E616D61736B61722082
:100FE000506F73652039203A204173687761205330
:100FF000616E6368616C616E6173616E0A0000000E
:101000000D5375727961204E616D61736B61722051
:10101000506F7365203130203A20506164686173ED
:10102000746173616E0A00000D5375727961204E10
:10103000616D61736B617220506F73652031312077
:101040003A20486173746F7474616E6173616E0AE3
:10105000000000000D5375727961204E616D61735F
:101060006B617220436F6D706C657465640A00007B
:101070000D5375727961204E616D61736B617220E1
:10108000506F7365203132203A205072617274685B
:10109000616E61204D756472610A0000012000F0EC
:1010A00041B900002DE9FC477D4D7E4E40F6B83A2F
:1010B000A878A6F18004C00706F14C0805F12409C0
:1010C00004F1100778A037D001F028FD504600F059
:1010D00011F97CA001F022FD684601F0EBF80098C0
:1010E0006862BDF80400288501F020F94C3686ECD2
:1010F000030AF0EE400A4646B0EE410AFFF79AFBBB
:1011000085ED070AD6ED010A96ED020AFFF792FB7C
:10111000F0EE400AC5ED080AB9F900002080B9F9DF
:1011200002106180B9F90420A28095ED070A84EDD0
:10113000020AC4ED030A38E001F0F0FC504600F06A
:10114000D9F866A001F0EAFC684601F0B3F800980F
:101150006862BDF80400288501F0E8F84C3686EC9A
:10116000030AF0EE400A4646B0EE410AFFF762FB82
:1011700085ED070AD6ED010A96ED020AFFF75AFB44
:1011800085ED080AB9F900003880B9F902107980B4
:10119000B9F90420BA8095ED071AF0EE400A87ED00
:1011A000021AC7ED030AB0EE410A01F023FA68887B
:1011B000401C6880B4F9000000286FD0B7F9001017
:1011C00000296BD0B5F90220D30767D0012A65DD6D
:1011D000002900DA4942002800DA4042081A00D506
:1011E0004042304B00B2603B1880B7F90210B4F9AE
:1011F0000220002900DA4942002A00DA5242891A04
:1012000000D5494209B25980B7F90420B4F9045015
:10121000002A00DA5242002D00DA6D42521B00D53E
:10122000524212B29A8097ED020ABDEEC00A10EE49
:10123000105A94ED020A002DBDEEC00A10EE106A9D
:1012400000DA6D42002E00DA7642AD1B00D56D4209
:1012500000EE105AB8EEC00A83ED020AD7ED030A79
:10126000FDEEE00A10EE905AD4ED030A002DFDEEDB
:10127000E00A10EE904A00DA6D42002C00DA644277
:101280002C1B00D5644200EE904AF8EEE00AC3ED54
:10129000030A02B0BDE8F04701F0ACB9BDE8FC8735
:1012A00000000020C800002033207365636F6E6467
:1012B000732064656C617920696E69746961746515
:1012C000640A000054616B696E6720496E69746935
:1012D000616C2076616C7565730A000054616B69FE
:1012E0006E672066696E616C2076616C7565730A45
:1012F0000000000070B5044600F02AF90546601CA5
:1013000002D004480078044400F022F9401BA042B7
:10131000FAD370BD300000200149012008707047E9
:1013200000000020044910B50A68024202D008609B
:10133000FFF7F2FF10BD0000143C01402DE9F84F0B
:10134000DFF8BCA1002201250AF1040B03264FF0AF
:101350000F090BF1040E00BF0B6805FA02F42340DD
:10136000A34270D10F7907F00307012F01D0022F9C
:1013700016D187684FEA420806FA08FC27EA0C07EC
:10138000D1F80CC00CFA08FC4CEA070CC0F808C0F5
:101390004768A7430C79C4F3001494403C4344606D
:1013A0000C79E443A4070AD0C4684FEA420C06FA59
:1013B0000CF7BC438F6807FA0CF72743C7600C791A
:1013C00004F00304022C12D1D40800EB840CDCF8E6
:1013D00020405707FF0E09FA07F824EA0804D1F85D
:1013E000108008FA07F848EA0408CCF8208004685E
:1013F0004FEA420C06FA0CF7BC430F7907F00307DB
:1014000007FA0CF7274307604C6814F4403F70D08C
:101410003C4C276847F480472760246822F0030784
:1014200004F480440094384C07EB040CDCF80848C2
:1014300097074FEA177809FA08F7BC43334FB842C9
:1014400002D1002724E054E0314FB84201D10127F6
:101450001EE0304FB84201D1022719E02E4FB842AA
:1014600001D1032714E02D4FB84201D104270FE02A
:101470002B4FB84201D105270AE02A4FB84201D1CB
:10148000062705E0284FB84201D1072700E00827CA
:1014900007FA08F72743CCF80878DAF800405746EF
:1014A000D1F804C09C435FEACC3C00D51C433C60AF
:1014B000DBF800405F46D1F804C09C435FEA8C3CF7
:1014C00000D51C433C60DEF800407746D1F804C0EC
:1014D0009C435FEACC2C00D51C433C60084F0C3782
:1014E0003C68D1F804C09C435FEA8C2C00D51C43B7
:1014F0003C60521C102AFFF42FAFBDE8F88F0000AB
:10150000003C0140443802400030014000000240ED
:101510000004024000080240000C0240001002409B
:101520000014024000180240001C024000690840FC
:1015300000D001207047426921EA02030A4043EAD1
:101540000241816170470AB1816170470904FBE77C
:101550000148806870470000300000200248816820
:101560000278114481607047300000200B4810B5AC
:10157000016841F400710160016841F4806101601B
:10158000016841F480710160032000F071F80020CF
:1015900000F006F800F024F8002010BD003C0240E6
:1015A00070B50D4D04464FF47A712878B1FBF0F018
:1015B0000A490968B1FBF0F000F0EFFD48B9102CC2
:1015C00007D200222146501E00F032F800206C6045
:1015D00070BD012070BD0000300000203C000020E4
:1015E0000B4882B0016841F480410160006800F45A
:1015F000804000900648001F016841F08051016062
:10160000006800F080500090072002B000F030B871
:1016100044380240002809DB00F01F0201219140FC
:101620004009800000F1E020C0F800117047000080
:10163000F0B40E4B1B680C46C3F30223C3F107053D
:10164000042D00D90425191D072901D2002300E02B
:10165000DB1E012606FA05F1491E214099409E40F5
:10166000761E16403143F0BC01F080BA0CED00E06C
:10167000064900F0070208684FF6FF03184040EAE9
:101680000220034A10430860704700000CED00E0A0
:101690000000FA052DE9F0470E46050065D0DFF899
:1016A0001481D8F80000F7B200F00700B04207D26A
:1016B00088F80070D8F8000000F00700B04254D15C
:1016C00028683D4C810712D5400703D5206840F4B7
:1016D000E05020602878000703D5206840F460407F
:1016E00020602068A96820F0F00008432060287876
:1016F000C0072DD0304968680839012812D0022867
:1017000013D0032811D00968890700292DDA216830
:1017100021F0030101432160FFF71AFF814641F2E6
:10172000883A0EE009688903EFE709688901ECE768
:10173000FFF70EFFA0EB0901514502D90320BDE8D8
:10174000F0872068696800F00C00B0EB810FEFD1E2
:10175000D8F80010404601F00701B14207D90770E0
:10176000006800F00700B04201D00120E7E72878C8
:10177000400705D52068E96820F4E0500843206060
:101780002878000706D52068296920F4604040EADF
:10179000C100206000F038F82168084AC1F3031145
:1017A000515CC8400649086006480068FFF7F8FE2B
:1017B0000020C4E7003C0240083802406C390008B1
:1017C0003C000020340000200448054900680968F6
:1017D000044AC1F38221515CC84070473C0000209C
:1017E000083802407C390008044805490068096847
:1017F000044AC1F34231515CC84070473C000020AC
:10180000083802407C390008154810B5006810F00F
:101810000C02144813D04110042A0FD0082A0ED10C
:101820000F4C241F2268236802F03F025B0207D599
:101830002068C0F38810A0FB010106E0084610BD37
:101840002168C1F38811A1FB00010023FEF7BAFC57
:101850002168C1F30141491C4900B0FBF1F010BD02
:10186000083802400024F4002DE9F84F04006ED03F
:101870002078DFF84C93C007A9F104054AD009F19C
:1018800004000168C1F38101012908D00068C0F398
:10189000810002280AD1D9F80000400206D5286844
:1018A000800337D560680028E1D033E06068B0F588
:1018B000803F10D0B0F5A02F286810D020F48030E1
:1018C0002860286820F4802028606068A8B1FFF7AD
:1018D0003FFE06460DE0286840F48030F4E740F40F
:1018E00080202860F7E700BFFFF732FE801B6428E6
:1018F00073D828688003F7D50CE0FFF729FE064669
:1019000005E000BFFFF724FE801B6428F0D828689C
:101910008003F7D42078DFF8AC8280074FF0000A0C
:101920003ED5A748001D016811F00C0F08D00068D3
:10193000C0F3810002280BD1D9F80000400207D47F
:101940002868800716D5E068012800D112E033E14D
:10195000E068B8B10120C8F80000FFF7F9FD0646BD
:1019600005E000BFFFF7F4FD801B0228C0D82868FF
:101970008007F7D52868216920F0F80040EAC10007
:1019800028600DE0C8F800A0FFF7E2FD064604E07D
:10199000FFF7DEFD801B02281FD828688007F7D4D8
:1019A0002078000722D5864F87486169703771B16A
:1019B00001210160FFF7CCFD064604E0FFF7C8FDFA
:1019C000801B022809D838688007F7D50EE0C0F8D8
:1019D00000A0FFF7BDFD064605E082E0FFF7B8FD79
:1019E000801B02287DD838688007F7D4207840070C
:1019F00068D5DFF8CCB100270BF13C0BDBF8000019
:101A0000C0000BD4DBF8001041F08051CBF800107F
:101A1000DBF80000012700F0805000906B4E30682A
:101A2000C00510D4306840F480703060FFF790FD3E
:101A3000009005E0FFF78CFD0099401A022850D86D
:101A40003068C005F6D55E4EA0686C3601280FD010
:101A50000528306810D020F001003060306820F098
:101A600004003060A068B8B1FFF772FD00900FE08D
:101A7000306840F00100F4E740F004003060F7E720
:101A8000FFF766FD0099411A41F28830814266D81D
:101A900030688007F4D50EE0FFF75AFD009007E0AC
:101AA000FFF756FD0099411A41F28830814256D81D
:101AB00030688007F4D42FB1DBF8001021F080519A
:101AC000CBF80010A069C8B33D49091D0968C1F3EE
:101AD000810102294AD00228504607D0C8F8600088
:101AE00000E03CE0FFF734FD04463BE04746C8F821
:101AF0006000FFF72DFD064605E000BFFFF728FD5B
:101B0000801B02282BD828688001F7D4D4E907016C
:101B10000843A16A2E4A490802EB0141626A41EA80
:101B20008211084394F82C1040EA0161C9F80010B2
:101B300001203866FFF70CFD044606E03EE000BFDA
:101B4000FFF706FD001B022809D828688001F7D599
:101B500034E000BFFFF7FCFC001B022802D9032081
:101B6000BDE8F88F28688001F4D427E00128F7D079
:101B7000D9F80000E26900F4800191421CD1226A88
:101B800000F03F01914217D147F6C071626A0140EF
:101B9000B1EB821F10D1A26A4FF0FF3300F4403145
:101BA00003EB5202B1EB024F06D194F82C1000F077
:101BB0007060B0EB016F01D00120D1E70020CFE7CA
:101BC0000438024000004742800E47420070004047
:101BD0000000FFFF70B5040009D0606A002540B125
:101BE00025616561A56294F8510040B10CE00120C7
:101BF00070BD6068B0F5827FF4D0E561F2E784F8EB
:101C00005050204600F044F8022084F8510020682B
:101C1000016821F040010160A088218900F48270F0
:101C200001F404410843A18901F400610843217CC7
:101C300001F002010843217D01F001010843218BDD
:101C400001F400710843217F01F03801084394F842
:101C5000201001F080010843218D01F40051084358
:101C600021680860A069042101EA104094F824105A
:101C700001F010010843216848602068C16921F41F
:101C80000061C1616565012084F85100002070BDCC
:101C900010B586B0044614216846FEF7DDFA1349F4
:101CA0002068884220D112480021026842F4805204
:101CB0000260006800F4805005900D4814380268F6
:101CC00042F001020260006800F001000590E0208F
:101CD00000900220CDE9010103200390052004902B
:101CE00069460448FFF72AFB06B010BD00300140EA
:101CF00044380240000002402DE9F84F0446406895
:101D00000025984616460F464FF0040BB0F5827F2B
:101D100001D1A06888B194F85000012818D00120A2
:101D200084F85000FFF714FC814694F851004FF0FE
:101D3000000A01280ED0022582E084F851B0134633
:101D40000A462046CDF8008000F036F9BDE8F88F4D
:101D50000220FBE7002F72D0002E70D084F851B023
:101D6000C4F854A0A763A687E687C4F830A0A4F8F7
:101D700034A0A4F836A0C4F840A0C4F844A0A068D9
:101D8000B0F5004F09D12068016821F040010160E1
:101D90002068016821F480410160206801684906DB
:101DA00003D4016841F040010160E068D8B139E036
:101DB00020688168C90709D0007BA16B0870A06BFF
:101DC000401CA063E08F401EE0870CE0FFF7C0FBE3
:101DD000A0EB0901414503D3B8F1FF3F03D036E042
:101DE000B8F1000F33D0E08F0028E1D11DE020686A
:101DF0008168C90709D0C068A16B0880A06B801CEE
:101E0000A063E08F401EE0870CE0FFF7A1FBA0EB92
:101E10000901414503D3B8F1FF3F03D017E0B8F102
:101E2000000F14D0E08F0028E1D14A4641462046F9
:101E300000F07CFC08B120206065606D00B10125D8
:101E4000012084F8510084F850A028467EE703253D
:101E5000F6E72DE9F84F044690F8500000271D469C
:101E60001646894601280DD04FF0010B84F850B07A
:101E7000FFF76EFB804694F85100BA46012804D063
:101E8000022793E00220BDE8F88FB9F1000F73D06C
:101E9000002E71D0032084F85100C4F854A0C4F877
:101EA0003090A686E686C4F838A0A4F83CA0A4F832
:101EB0003EA0C4F844A0C4F840A0A068B0F5004F0C
:101EC00009D12068016821F04001016020680168A3
:101ED00041F48041016020680168490603D401682B
:101EE00041F040010160E068B0F5006F606803D028
:101EF00030B3012E24D041E008B1012E1CD1206B5B
:101F000021680088C86006E020688168890709D5D3
:101F1000216B0988C160206B801C2063E08E401E0D
:101F2000E08609E0FFF714FBA0EB0800A84202D30B
:101F3000681C01D031E07DB3E08E0028E4D120E0C0
:101F4000206B21680078087306E0206881688907A3
:101F500009D5216B09780173206B401C2063E08E4A
:101F6000401EE0860AE0FFF7F3FAA0EB0800A84263
:101F700003D3681C02D010E017E06DB1E08E00289A
:101F8000E3D142462946204600F0FEFB08B120205E
:101F90006065A06818B106E0FFE7032706E0206847
:101FA000C16880680090606D00B1012784F851B06D
:101FB00084F850A0384666E72DE9F84F044690F8BB
:101FC000500000270A9E1D4692468B464FF001099D
:101FD00001280ED0012084F85000FFF7B9FA80469E
:101FE00094F85100616801280CD0B1F5827F07D1C7
:101FF00002E00220BDE8F88FA16809B9042801D0E9
:102000000227C2E0BBF1000F27D0BAF1000F24D0A5
:102010001DB394F85100042802D0052084F8510023
:1020200000206065C4F838A0E587A587C4F830B003
:10203000E586A5862064606420680168490603D4AB
:10204000016841F040010160E068B0F5006F606830
:1020500005D0E8B3012D46D07FE0012795E008B117
:10206000012D39D1206B21680088C860206B801C4D
:102070002063E08E401EE0862EE02068816889079C
:102080000FD5E18E69B1B9F1010F0AD1216B098831
:10209000C160206B801C2063E08E401EE0864FF004
:1020A000000920688168C9070CD0E18F51B1C06870
:1020B000A16B0880A06B801CA063E08F401EE087AE
:1020C0004FF00109FFF744FAA0EB0800B04200E02E
:1020D00009E001D3701C50D1E08E0028CDD1E08FF3
:1020E0000028CAD13FE0206B216800780873206B7C
:1020F000401C2063E08E401EE0862EE02068816850
:1021000089070FD5E18E69B1B9F1010F0AD1216BB1
:1021100009780173206B401C2063E08E401EE0862E
:102120004FF0000920688168C9070CD0E18F51B1D8
:10213000C068A16B0870A06B401CA063E08F401EBC
:10214000E0874FF00109FFF703FAA0EB0800B04267
:1021500002D3701C01D010E07EB1E08E0028CDD1FA
:10216000E08F0028CAD142463146204600F00CFBE1
:1021700028B101272020606507E0032705E0A0685B
:1021800018B92068C16880680090012084F8510067
:10219000002084F8500038462CE710B5401EB0F1FE
:1021A000807F01D3012010BD4FF0E02460610F213A
:1021B000601700F0DBFC0020A061072020610020F8
:1021C00010BD70B5040004D094F83D00002510B196
:1021D00006E0012070BD84F83C50204600F022F853
:1021E000242084F83D002068C16821F40051C160BA
:1021F000204600F00BFC2068016921F49041016148
:102200002068416921F02A0141612068C16841F4D8
:102210000051C1602564202084F83D0084F83E0010
:10222000002070BD10B586B0044614216846FEF744
:1022300013F813492068884220D11248002102680F
:1022400042F400320260006800F4003005900D484E
:102250001038026842F001020260006800F00100DC
:1022600005900C2000900220CDE90101032003908D
:102270000720049069460448FFF760F806B010BDD7
:10228000004400404038024000000240FEE70000E9
:1022900007490968C9070AD0054980390968C9078B
:1022A00005D04FF060410A68002AFCD008707047E2
:1022B000800E00E02DE9FE4F8246022202A928206E
:1022C00000F0BAF8814602AC02222920A11C00F0DD
:1022D000B3F88046022202A92A2000F0ADF8074692
:1022E0000222A11C2B2000F0A7F80646022202A918
:1022F0002C2000F0A1F805460222A11C2D2000F0A0
:102300009BF849EA0821ADF8001047EA0621ADF82C
:10231000021045EA0020ADF804000099CAF8001048
:10232000BDF80410AAF80410BDE8FE8F1CB568467D
:10233000FFF7C0FFBDF900106FF08C0091FBF0F1CA
:1023400000EE101ABDF9021091FBF0F100EE901AA8
:10235000BDF90410B8EEC00A91FBF0F001EE100ACE
:10236000F8EEE00AB8EEC11A1CBD000038B50C4604
:1023700000218DF80010014658222748FDF753FF31
:10238000E078012200F007008DF80000217801F0CC
:10239000F00101438DF800106946202000F07CF820
:1023A000A078617800F0C00001F0380101438DF899
:1023B000001001226946242000F06EF8207938B11F
:1023C00088208DF8000001226946232000F064F87F
:1023D00061781248102916D003DC39B108290CD1D4
:1023E00007E0182912D0202907D112E09FED0C0A2E
:1023F00001E09FED0C0A80ED000A012208210A4845
:10240000FFF7A1F838BD9FED090AF4E79FED080A30
:10241000F1E79FED080AEEE7200100202C000020E4
:102420008FC2753D8FC2F53D00100240EC51383E21
:102430008FC2753E48E13A3FF8B540F08000144E37
:1024400015460C468DF80000002208213046FFF7A3
:102450007AF80A23012269460E48FFF7FAFC0A239C
:102460002A4669460B48FFF747FC012208213046FF
:10247000FFF769F800206A4605F0030103E0135CEA
:102480002354401CC0B28142F9D82078F8BD000026
:102490000010024020010020F8B50E4E14460D46F3
:1024A0008DF80000002208213046FFF74CF80A237F
:1024B000012269460848FFF7CCFC0A232246294638
:1024C0000548FFF7C6FC012208213046FFF73BF81C
:1024D000F8BD000000100240200100202DE9F0416D
:1024E00086B014216846FDF7B7FE2B48002401682A
:1024F00041F010010160016801F0100105910168CF
:1025000041F001010160016801F0010105910168DC
:1025100041F0080101600068DFF8808000F00800E9
:102520000590002208214046FFF70DF81C4F4FF49C
:102530007046002231463846FFF705F80820009023
:102540000125CDE90154694640460394FEF7F6FEA5
:10255000CDE90054694613480294FEF7EFFE009659
:10256000CDE90154694638460394FEF7E7FE4FF47F
:1025700088100095CDE9010469464046FEF7DEFE6D
:10258000002211460620FFF753F80620FFF742F815
:1025900006B0BDE8F0810000303802400010024073
:1025A000000C0240000002400F4810B50D490160C8
:1025B0004FF48271416000218160C1604FF400726C
:1025C0000161C0E905121022C0E907214162816260
:1025D0000A21C162FFF7FEFA002801D072B6FEE7B9
:1025E00010BD00000030014078000020FEE7FEE74B
:1025F0007047000070B52DED028B0446B0EE608A86
:10260000F0EE408A16460D461AA000F087FA24A084
:1026100000F084FA21462AA000F080FA29462CA076
:1026200000F07CFA31462EA000F078FA30A000F0DD
:1026300075FA18EE900AFDF7AFFF41EC100B35A0CC
:1026400053EC102B00F06AFA18EE100AFDF7A4FF05
:1026500041EC100B32A053EC102B00F05FFA2CA0D1
:1026600000F05CFABDEC028B02A0BDE8704000F007
:1026700055BA0000202A2A2A2A2A2A2A2A2A2A2A5D
:102680002A2A2A2A2A2A2A2A2A2A2A2A2A2A2A2AAA
:102690002A2A2A2A2A2A2A2A2A2A2A2A2A200A00EE
:1026A000202A2A2A2A2A2A2A2A2A2A524157204418
:1026B0004154412A2A2A2A2A2A2A2A2A2A200A0076
:1026C00020582076616C7565203D2025640A000045
:1026D00020592076616C7565203D2025640A000034
:1026E000205A2076616C7565203D2025640A000023
:1026F000202A2A2A2A2A2A2A2A2A2A414E474C45AF
:1027000020444154412A2A2A2A2A2A2A2A2A2A20CB
:102710000A000000526F6C6C203D2025660A000004
:102720005069746368203D2025660A00F8B50446A8
:1027300040684FF48273984221D1A0684FF48065BD
:10274000B0F5004F01D0A8420AD12068066826F0F3
:10275000400606606068984211D1A068A8420ED079
:1027600000920B4600228021204600F039F8002814
:1027700004D0606D40F0200060650320F8BD009239
:102780000B4600220121EFE738B504461248134BEF
:102790000068B0FBF3F04FF47A7358430090606820
:1027A000B0F5827F0DD10B46009200228021204699
:1027B00000F016F870B1606D40F0200060650320F5
:1027C00038BD009830B1401E009020688068C0433A
:1027D0000006F6D5002038BD3C00002000366E0112
:1027E0002DE9F8431E46914688460446089DFEF7AB
:1027F000AFFE401B351AFEF7ABFE074625480068C2
:10280000C0F3CB30684338E0701C37D0FEF7A0FE31
:10281000C01BA84203D215B1009860B32CE0206819
:10282000416821F0E00141606068B0F5827F0BD122
:10283000A068B0F5004F02D0B0F5806F04D12068D9
:10284000016821F040010160A06AB0F5005F09D184
:102850002068016821F4005101602068016841F49A
:1028600000510160012084F85100002084F85000DC
:102870000320BDE8F8830025401E00902068816891
:1028800038EA010004D000214945BDD10020F0E71D
:102890000121F9E73C000020704700007CB522A030
:1028A00000F03CF941F28830FEF724FD25A000F04D
:1028B00035F96846FFF7FEFC284C00986062BDF8C9
:1028C00004002085FFF732FD2548054680EC030A09
:1028D000F0EE400AB0EE410AFDF7ACFF84ED070AC6
:1028E000D5ED010A95ED020AFDF7A4FF04F12402DB
:1028F00084ED080AA5F1CC03B2F900001880B2F902
:1029000002105980B2F904209A8094ED071AF0EE73
:10291000400A83ED021AC3ED030A02B0B0EE410A89
:10292000BDE87040FFF766BE35207365636F6E6467
:10293000732064656C617920696E6974696174657E
:10294000640A000054616B696E6720496E6974699E
:10295000616C2076616C7565730A000000000020D0
:1029600014010020FEF7FABD30B593B0302168465F
:10297000FDF772FC14210CA8FDF76EFC1D48002524
:10298000016841F080510160006800F080501190B2
:102990001948016841F4804101600068022400F494
:1029A0008040119001200390102004900094069420
:1029B0000820CDE90750A820CDE9090407200B9095
:1029C0006846FEF751FF08B172B6FEE70CA90F206A
:1029D00081E831004FF4A0500F904FF480501090D8
:1029E00005210CA8FEF756FE002801D072B6FEE7BE
:1029F00013B030BD4038024000700040024801680A
:102A000041F470010160704788ED00E070B5044644
:102A100000680169E26821F44051114301612169B4
:102A2000A068E26908436169114308432168CA68E4
:102A300049F20C639A430243CA6020684169A26963
:102A400021F440711143416131492068884202D02C
:102A50003049884202D1FEF7C7FE01E0FEF7B4FE1E
:102A6000E2690023192164253226B2F5004F62681D
:102A700028D0A0FB0101930F9200FDF7A3FB0146B4
:102A8000B0FBF5F06FF01802504301EB800006EB4D
:102A90000010B0FBF5F000F0F002B1FBF5F002EB36
:102AA0000012B1FBF5F06FF01803584301EB800002
:102AB00006EB0010B0FBF5F000F00F0021681044A9
:102AC000886070BDA0FB010192185B41FDF77AFBA5
:102AD0000146B0FBF5F00201B1FBF5F06FF0180311
:102AE000584301EB800006EBC000B0FBF5F000F0AE
:102AF000F80002EB4002B1FBF5F0584301EB800017
:102B000006EBC000B0FBF5F000F00700D6E70000D0
:102B10000010014000140140FEE700000FB4054B17
:102B200010B503A9044A029800F008FB10BC5DF838
:102B300014FB00005D3800084000002003B4019839
:102B40004100009850EAC12018BF04204A0D18BF68
:102B500040F0010040F2FF72B2EB515F08BF40F05D
:102B60000200012808BF052002B070470907090EBE
:102B7000002804DB00F1E02080F80014704700F02A
:102B80000F0000F1E02080F8141D704700000000E5
:102B900070B59B482DED020B2DED068B079D25F0A2
:102BA0000044A04218DC9748844202DC0AD106980F
:102BB00040B19DED060BBDEC068B02B0BDE8704048
:102BC00000F0CEB9002DCCBF9FED8F0B9FED900B89
:102BD000BDEC068B02B070BD8F48A04215DD8F485A
:102BE000A042D8BF4FF0FF3458DD9DED060B51ECED
:102BF000100BFFF7A3FF042808BF00F0BDF99DEDFF
:102C0000060BBDEC068B02B070BD9DED060B51ECC2
:102C1000100B00F016FECDE9060181489FED828B76
:102C2000A0423CDD8248A0421FDD00249FED82AB24
:102C30009DED060B53EC1A2B51EC100BFDF717FB17
:102C40009DED060B41EC190B53EC1A2B51EC100BBC
:102C5000FDF7B4FB53EC182BFDF7AAFB53EC192B33
:102C6000FDF71EFCCDE9060149E09DED060B0124B0
:102C700053EC182B51EC100BFDF7F9FA9DED060BF8
:102C800041EC190B53EC182B51EC100BFDF790FB9A
:102C900053EC192BFDF704FCCDE906012FE0684841
:102CA000A0421FDD02249FED689B9DED060B53ECB7
:102CB000192B51EC100BFDF781FB53EC182BFDF792
:102CC000D6FA9DED060B41EC180B53EC192B51EC89
:102CD000100BFDF76DFB53EC182BFDF7E1FBCDE975
:102CE00006010CE09DED060B032453EC102B9FED29
:102CF000580B51EC100BFDF7D3FBCDE906019DED10
:102D0000060B53EC102B51EC100BFDF757FB41EC6D
:102D1000180B53EC182BFDF751FB41EC190B4E48E7
:102D20000621B0EE490AF0EE690A784400F09CF8FA
:102D300053EC182B51EC100BFDF740FB41EC180B3A
:102D40004648B0EE490AF0EE690A0521784400F0E1
:102D50008BF853EC192B51EC100BFDF72FFB41ECCA
:102D6000100B51EC180B53EC102B002C0EDAFDF766
:102D70007EFA9DED061B53EC112BFDF71FFB9DED1D
:102D8000061B53EC112BFDF716FB35E0FDF76FFA30
:102D90009DED061B53EC112BFDF710FB41EC100BC6
:102DA0002F48784400EBC40090ED001B51EC100B51
:102DB00053EC112BFDF7FCFA9DED061B53EC112B88
:102DC000FDF7F6FA41EC100B2648784400EBC400FE
:102DD00090ED001B51EC100B53EC112BFDF7EBFAAF
:102DE00041EC100B002DA2BFBDEC068B02B070BDF4
:102DF00051EC100B81F0004141EC100B01E7000099
:102E0000000010440000F07F182D4454FB21F93FCE
:102E1000182D4454FB21F9BF0000DC3F0000203E88
:102E20000000F33F00000000000000000000F03F41
:102E30000000E63F0000000000000000000000402D
:102E40000080034000000000000000000000F83F88
:102E5000000000000000F0BFC20C0000780C000071
:102E6000020C0000BA0B000070B504462DED028B79
:102E70004D1E00EBC500B0EE408AF0EE608A90ED8A
:102E8000000B35F0060017D053EC182B51EC100B4B
:102E9000FDF794FA41EC100B6D1E04EBC50090EDAC
:102EA000001B51EC100B53EC112BFDF7E0F941EC3A
:102EB000100B35F00600E7D1022D36D0042D1CD0C2
:102EC000062D1CBFBDEC028B70BD53EC182B51ECD2
:102ED000100BFDF773FA94ED0A1B53EC112BFDF761
:102EE000C6F953EC182BFDF769FA94ED081B53EC67
:102EF000112BFDF7BCF941EC100B53EC182B51ECE6
:102F0000100BFDF75BFA94ED061B53EC112BFDF74C
:102F1000AEF953EC182BFDF751FA94ED040B53EC7A
:102F2000102BFDF7A4F941EC100B53EC182B51ECCE
:102F3000100BFDF743FA94ED021B53EC112BFDF738
:102F400096F953EC182BFDF739FA94ED001B53EC6E
:102F5000112BFDF78CF9BDEC028B41EC100B70BD11
:102F600010B553EC102B51EC100BFDF780F941EC30
:102F7000100B10BD000000009FED050B10B553ECC9
:102F8000102B51EC100BFDF719FA41EC100B10BD92
:102F9000000000000000001002E008C8121F08C175
:102FA000002AFAD170477047002001E001C1121FCA
:102FB000002AFBD1704700002DE9FF5F82B000219D
:102FC000DDE90430020DDDF840B0034318D044F6CB
:102FD0001050A2F2FF3242431514119801281FD05D
:102FE000A5EB0B00401C5FEA000A4FF000064E4FB5
:102FF000DFF83891B046504615D5CAF1000413E009
:10300000119801244AA3012801D16FEA0B0102980B
:10301000119AC0E90031C0E9024206B0BDE8F09F54
:10302000CBF10000DFE704460021404A491842EB9B
:103030000450CDE9001012E0E00707D032463B46CD
:1030400040464946FDF7BAF98046894632463B4636
:1030500010461946FDF7B2F906460F466410002CDB
:10306000EAD1DDE90401DDE90023BAF1000F06DA57
:10307000FDF7A4F942464B46FDF7A0F905E0FDF740
:103080000FFA42464B46FDF70BFA04460E46002265
:10309000284BFDF7A3FB03D84FF0FF30014607E0B4
:1030A0000022254B20463146FDF7E1F8FDF77EFB77
:1030B000102409E0002C0ADB0A220023FDF782F825
:1030C000039B30321A55641E50EA0102F2D1641C8F
:1030D000039AC4F111031444119A012A03D0012266
:1030E00008430DD10AE0084304D000204FF0110B33
:1030F000119072E7A3EB0B056D1E0DE05B4504DD3F
:103100004FF0000205F1010504E003DA4FF0000280
:10311000A5F10105002AECD002981199C0E902310D
:10312000C0E9004579E70000000014400000F03FCE
:10313000300000000000F0430000E03F2DE9FF4FA9
:1031400095B09A46884606460025EEE1252877D1B7
:1031500000242746F94A0121039400E0044316F8AD
:10316000013F203B01FA03F01042F7D130782A28C2
:1031700011D06FF02F033078A0F13002092A16D851
:10318000039A44F0020402EB820203EB4202104471
:10319000761C0390EFE758F8042B0392002A03DA19
:1031A000504244F40054039044F00204761C3078FA
:1031B0002E2816D116F8010F44F004042A280DD049
:1031C0006FF02F023078A0F13003092B09D807EBFC
:1031D000870302EB4303C718761CF3E758F8047B18
:1031E000761C30786C280FD006DC4C2817D0682865
:1031F0000DD06A2814D104E0742810D07A280FD199
:103200000DE044F400140AE044F4801401E044F4B6
:1032100040147278824202D104F58014761C761C28
:10322000307866280BD013DC582877D009DC0028CA
:1032300075D04528F6D04628F4D047281AD193E116
:1032400018E0632835D0642879D0652812D18BE145
:10325000702873D008DC6728F1D069286FD06E28F9
:103260000DD06F2806D1ACE073282CD0752874D00F
:10327000782853D05246179990476D1C54E1C4F3F7
:103280000250022809D003280DD0D8F800100428D5
:103290000DD00D6008F1040846E1D8F80010EA17D7
:1032A000C1E90052F6E7D8F800100D80F2E70D7082
:1032B000F0E718F8041B8DF8001000208DF80100CD
:1032C000EB46012003E058F804BB4FF0FF306107E4
:1032D0004FF0000102D40DE009F101018946B94225
:1032E0000FDA8145F8DB1BF809100029F4D108E05A
:1032F00009F1010189468142FADB1BF80910002916
:10330000F6D103985346A0EB090721463846179A91
:1033100000F080FA284400EB090507E044E008E1EA
:103320000DE01BF8010B524617999047B9F10109BE
:10333000F7D2534621463846179AF2E039E00A217F
:10334000C4F302524FF0000B0091022A06D058F845
:10335000040BC117032A09D00AE023E008F1070093
:1033600020F00702F2E80201904605E000B2C11722
:10337000042A01D140B2C117002906DA0A46002109
:10338000404261EB02012D2202E0220504D52B22EE
:103390008DF80420012203E0E20701D02022F7E7A4
:1033A000914657E00A2100E010214FF0000B0091F8
:1033B0000BE010214FF0000B44F0040408270091AB
:1033C00003E008204FF0000B0090C4F30252022AE1
:1033D00005D058F8040B0021032A08D008E008F1B2
:1033E000070020F00702F2E80201904603E080B2F5
:1033F000042A00D1C0B24FF0000922072AD5327842
:10340000702A07D0DDF800C08CF0100C5CEA0B0CC1
:1034100005D00EE040228DF80420012208E050EA99
:10342000010306D030238DF804308DF805200222E8
:103430009146009B83F0080353EA0B030AD150EA3C
:10344000010201D1620705D530228DF804204FF02A
:1034500001097F1E3278582A04D039A20C920CAA96
:1034600002920BE03BA2F9E75B46009AFCF7AAFE4A
:103470000C9B9B5C029A521E0292137050EA01024E
:10348000F2D1029804A9081A00F1200B600702D5B6
:1034900024F4803400E001275F4502DDA7EB0B0038
:1034A00000E0002000EB0B01009003984944401A13
:1034B0000390E00306D453462146179A039800F080
:1034C000A9F90544002706E001A85246C05D1799F6
:1034D00090476D1C7F1C4F45F6DBE0030CD553462F
:1034E0002146179A039800F095F9054404E030202E
:1034F0005246179990476D1C0099481E009000296C
:10350000F5DC08E00298029952460078491C0291C5
:10351000179990476D1CBBF10001ABF1010BF1DC79
:103520005BE100F065F90544761C307800287FF4F3
:103530000DAE19B02846BDE8F08F00000928010043
:103540003031323334353637383961626364656619
:1035500000000000303132333435363738394142DB
:103560004344454600000000600700D4062708F1E8
:10357000070020F00700F0E80223804603F0004C2B
:103580005FEA0C0001D097A009E0200501D596A0C4
:1035900005E0E00701D095A001E0AFF24C001390E8
:1035A000307823F0004365280CD006DC452809D08C
:1035B00046281DD047287FD13BE0662818D06728D1
:1035C0007AD136E00021112F01DB112000E0781CB8
:1035D000CDE9000104A90CA8FFF7EEFCDDE90D011F
:1035E0000C9A4FF0000B07F10109109200914EE088
:1035F0004FF000400097CDE9011004A90CA8FFF797
:10360000DBFCDDE90D020C9B0F994FF0000B91469E
:103610001093009211B9791C00EB0109B7EB090076
:1036200003D4C0F1FF3B07F10109A9EB07000190AA
:1036300042E0012F00DA01270021112F01DD1120C6
:1036400000E03846CDE9000104A90CA8FFF7B4FC5E
:10365000DDE90D010C9A00914FF0000BB946109274
:1036600021070FD4009A4A4503DA914601E0A9F1F7
:103670000109B9F1010F05DD109AA9F10101515CB1
:103680003029F4D0B84202DA10F1040F03DA012134
:10369000CDE9011010E0002803DC8344A9EB000110
:1036A00002E0411C494500DD8946A0EB0B00401CAF
:1036B00001904FF000400290200705D40198484542
:1036C00002DB4FF0FF30019000208DF84B00029894
:1036D0000DF14B07B0F1004F25D002200C902B20AC
:1036E0000D90029800280CDA404202902D200D9097
:1036F00007E00A210298FCF77EFF3031029007F8BC
:10370000011D0C99481E0C900029F2DC029800283B
:10371000EFD1791E0D980870307800F0200040F04D
:10372000450007F8020D11A8C01BC01D0290139898
:10373000007800B1012000EB0901019801EBE07174
:10374000029801440398401A401E0390E00306D4F7
:1037500053462146179A039800F05CF805441398E5
:10376000007818B15246179990476D1CE00323D595
:1037700053462146179A039800F04CF805441BE085
:10378000BBF1000F07DB0098584504DD109817992E
:1037900010F80B0001E0179930205246904701982D
:1037A0000BF1010B401E05F10105019004D12E2003
:1037B0005246179990476D1CB9F10001A9F1010912
:1037C000DEDC05E017F8010B5246179990476D1C97
:1037D0000299481E02900029F4DC53462146179AAC
:1037E00003989EE62D0000002B0000002000000042
:1037F0002DE9F041044600251E461746880404D4EE
:1038000005E039462020B0476D1C641EF9D52846D6
:10381000BDE8F0812DE9F041044600251E469046A2
:10382000C80301D5302700E02027880404D505E02F
:1038300041463846B0476D1C641EF9D52846BDE8A0
:10384000F08182B0CDE9000121F0004001909DEDB2
:10385000000B02B051EC100B70470000054A91427A
:1038600002D0054A914201D1FEF712BD4FF0FF3060
:103870007047000040000020440000201CB5FDF708
:1038800075FEFFF771F8FEF729FEFEF78DFE26485C
:103890002449002501604FF41651C0E901150C219F
:1038A000C560C0E904518561C561FEF78AFC08B1B5
:1038B00072B6FEE71D48016841F0807101601C4846
:1038C0004560016841F00101016030208DF8000081
:1038D00008208DF8010007208DF80300C0208DF826
:1038E000020001208DF804000F4869465838FEF7A1
:1038F0003DFD10A0FFF712F941F28830FDF7FAFC08
:1039000001211848FDF712FE174C0128607002D102
:103910006089401C608120780128FCD12570FDF76A
:103920002FF8F8E700440040D0000020FCED00E054
:10393000001000E00D2035207365636F6E64732006
:1039400064656C61792C206C6F6E67207072657392
:103950007320746865207075736820627574746F65
:103960006E0A00000000024000000020000000007D
:10397000000000000102030406070809000000001F
:1039800001020304000000004FBB610567ACDD3F8E
:10399000182D4454FB21E93F9BF681D20B73EF3F76
:1039A000182D4454FB21F93FE2652F227F2B7A3CEE
:1039B000075C143326A6813CBDCBF07A8807703CA7
:1039C000075C143326A6913CC4EB98999999C9BF1A
:1039D000711623FEC671BCBF6D9A74AFF2B0B3BF4F
:1039E0009AFDDE522DDEADBF2F6C6A2C44B4A2BF0F
:1039F0000D5555555555D53FFF8300922449C23F7B
:103A00006E204CC5CD45B73F513DD0A0660DB13FAE
:103A1000EB0D76244B7BA93F11DA22E33AAD903FC0
:103A20002A2A2A414C4C204A554D50494E47204A9B
:103A300041434B5320434F4D504C455445442C205B
:103A40004C455453204D4F564520544F204E455819
:103A5000542045584552434953452C203520736521
:103A6000636F6E647320627265616B2121212A2A63
:103A70002A2A0A002A2A2A414C4C205349545550DC
:103A80005320434F4D504C455445442C204C4554F5
:103A900053204D4F564520544F204E4558542045F5
:103AA000584552434953452C2035207365636F6E4A
:103AB000647320627265616B2121212A2A2A2A0AF5
:103AC000000000002A2A2A414C4C205355525941EB
:103AD0004E414D41534B41525320434F4D504C4565
:103AE0005445442C204C455453204D4F56452054AA
:103AF0004F204E4558542045584552434953452C74
:103B00002035207365636F6E647320627265616B2C
:103B10002121212A2A2A2A0A000000002A2A2A41D1
:103B20004C4C2053515541545320434F4D504C451C
:103B30005445442C204C455453204D4F5645205459
:103B40004F204E4558542045584552434953452C23
:103B50002035207365636F6E647320627265616BDC
:103B60002121212A2A2A2A0A000000002A2A2A2A98
:103B70002A2A2A2A2A2A2A2A2A2A2A2A4A756D70B1
:103B8000696E67204A61636B732064657465637452
:103B9000656421212121212121212A2A2A2A2A2A58
:103BA0002A2A2A2A2A2A2A2A2A2A2A2A2A2A2A2A75
:103BB0000A000000D43B000800000020480000007C
:103BC000982F00081C3C0008480000203005000029
:103BD000A82F000800000100000000000000000005
:103BE00000000000000000000000000000000000D5
:103BF00000000000000000000000000000000000C5
:103C00008FC2753D010000001000000000000000A0
:0C3C10000024F400000000000000000090
:040000050800018965
:00000001FF
